{
  "_format": "hh-sol-artifact-1",
  "contractName": "Rentdapp",
  "sourceName": "contracts/Rentdapp.sol",
  "abi": [
    {
      "inputs": [],
      "stateMutability": "nonpayable",
      "type": "constructor"
    },
    {
      "inputs": [
        {
          "internalType": "address",
          "name": "owner",
          "type": "address"
        }
      ],
      "name": "OwnableInvalidOwner",
      "type": "error"
    },
    {
      "inputs": [
        {
          "internalType": "address",
          "name": "account",
          "type": "address"
        }
      ],
      "name": "OwnableUnauthorizedAccount",
      "type": "error"
    },
    {
      "inputs": [],
      "name": "ReentrancyGuardReentrantCall",
      "type": "error"
    },
    {
      "anonymous": false,
      "inputs": [
        {
          "indexed": true,
          "internalType": "string",
          "name": "name",
          "type": "string"
        },
        {
          "indexed": true,
          "internalType": "uint256",
          "name": "price",
          "type": "uint256"
        },
        {
          "indexed": true,
          "internalType": "address",
          "name": "owner",
          "type": "address"
        },
        {
          "indexed": false,
          "internalType": "uint256",
          "name": "id",
          "type": "uint256"
        }
      ],
      "name": "ApartmentCreated",
      "type": "event"
    },
    {
      "anonymous": false,
      "inputs": [
        {
          "indexed": true,
          "internalType": "string",
          "name": "name",
          "type": "string"
        },
        {
          "indexed": true,
          "internalType": "uint256",
          "name": "price",
          "type": "uint256"
        },
        {
          "indexed": true,
          "internalType": "address",
          "name": "owner",
          "type": "address"
        }
      ],
      "name": "ApartmentUpdated",
      "type": "event"
    },
    {
      "anonymous": false,
      "inputs": [
        {
          "indexed": true,
          "internalType": "address",
          "name": "previousOwner",
          "type": "address"
        },
        {
          "indexed": true,
          "internalType": "address",
          "name": "newOwner",
          "type": "address"
        }
      ],
      "name": "OwnershipTransferred",
      "type": "event"
    },
    {
      "inputs": [],
      "name": "_totalAppartments",
      "outputs": [
        {
          "internalType": "uint256",
          "name": "",
          "type": "uint256"
        }
      ],
      "stateMutability": "view",
      "type": "function"
    },
    {
      "inputs": [],
      "name": "_totalBookings",
      "outputs": [
        {
          "internalType": "uint256",
          "name": "",
          "type": "uint256"
        }
      ],
      "stateMutability": "view",
      "type": "function"
    },
    {
      "inputs": [
        {
          "internalType": "uint256",
          "name": "aid",
          "type": "uint256"
        },
        {
          "internalType": "string",
          "name": "reviewText",
          "type": "string"
        }
      ],
      "name": "addReview",
      "outputs": [],
      "stateMutability": "nonpayable",
      "type": "function"
    },
    {
      "inputs": [
        {
          "internalType": "uint256",
          "name": "aid",
          "type": "uint256"
        },
        {
          "internalType": "uint256[]",
          "name": "dates",
          "type": "uint256[]"
        }
      ],
      "name": "bookApartment",
      "outputs": [],
      "stateMutability": "payable",
      "type": "function"
    },
    {
      "inputs": [
        {
          "internalType": "uint256",
          "name": "aid",
          "type": "uint256"
        },
        {
          "internalType": "uint256",
          "name": "bookingId",
          "type": "uint256"
        }
      ],
      "name": "checkInApartment",
      "outputs": [],
      "stateMutability": "nonpayable",
      "type": "function"
    },
    {
      "inputs": [
        {
          "internalType": "uint256",
          "name": "aid",
          "type": "uint256"
        },
        {
          "internalType": "uint256",
          "name": "bookingId",
          "type": "uint256"
        }
      ],
      "name": "checkOutApartment",
      "outputs": [],
      "stateMutability": "nonpayable",
      "type": "function"
    },
    {
      "inputs": [
        {
          "internalType": "string",
          "name": "name",
          "type": "string"
        },
        {
          "internalType": "string",
          "name": "description",
          "type": "string"
        },
        {
          "internalType": "string",
          "name": "category",
          "type": "string"
        },
        {
          "internalType": "string",
          "name": "location",
          "type": "string"
        },
        {
          "internalType": "string",
          "name": "images",
          "type": "string"
        },
        {
          "internalType": "uint256",
          "name": "rooms",
          "type": "uint256"
        },
        {
          "internalType": "uint256",
          "name": "price",
          "type": "uint256"
        }
      ],
      "name": "createAppartment",
      "outputs": [],
      "stateMutability": "nonpayable",
      "type": "function"
    },
    {
      "inputs": [
        {
          "internalType": "uint256",
          "name": "id",
          "type": "uint256"
        }
      ],
      "name": "deleteAppartment",
      "outputs": [],
      "stateMutability": "nonpayable",
      "type": "function"
    },
    {
      "inputs": [
        {
          "internalType": "uint256",
          "name": "id",
          "type": "uint256"
        }
      ],
      "name": "getApartment",
      "outputs": [
        {
          "components": [
            {
              "internalType": "uint256",
              "name": "id",
              "type": "uint256"
            },
            {
              "internalType": "address",
              "name": "owner",
              "type": "address"
            },
            {
              "internalType": "uint256",
              "name": "timestamp",
              "type": "uint256"
            },
            {
              "internalType": "uint256",
              "name": "price",
              "type": "uint256"
            },
            {
              "internalType": "uint256",
              "name": "rooms",
              "type": "uint256"
            },
            {
              "internalType": "bool",
              "name": "booked",
              "type": "bool"
            },
            {
              "internalType": "bool",
              "name": "deleted",
              "type": "bool"
            },
            {
              "internalType": "string",
              "name": "name",
              "type": "string"
            },
            {
              "internalType": "string",
              "name": "description",
              "type": "string"
            },
            {
              "internalType": "string",
              "name": "location",
              "type": "string"
            },
            {
              "internalType": "string",
              "name": "images",
              "type": "string"
            },
            {
              "internalType": "string",
              "name": "category",
              "type": "string"
            }
          ],
          "internalType": "struct Rentdapp.ApartmentStruct",
          "name": "",
          "type": "tuple"
        }
      ],
      "stateMutability": "view",
      "type": "function"
    },
    {
      "inputs": [],
      "name": "getApartments",
      "outputs": [
        {
          "components": [
            {
              "internalType": "uint256",
              "name": "id",
              "type": "uint256"
            },
            {
              "internalType": "address",
              "name": "owner",
              "type": "address"
            },
            {
              "internalType": "uint256",
              "name": "timestamp",
              "type": "uint256"
            },
            {
              "internalType": "uint256",
              "name": "price",
              "type": "uint256"
            },
            {
              "internalType": "uint256",
              "name": "rooms",
              "type": "uint256"
            },
            {
              "internalType": "bool",
              "name": "booked",
              "type": "bool"
            },
            {
              "internalType": "bool",
              "name": "deleted",
              "type": "bool"
            },
            {
              "internalType": "string",
              "name": "name",
              "type": "string"
            },
            {
              "internalType": "string",
              "name": "description",
              "type": "string"
            },
            {
              "internalType": "string",
              "name": "location",
              "type": "string"
            },
            {
              "internalType": "string",
              "name": "images",
              "type": "string"
            },
            {
              "internalType": "string",
              "name": "category",
              "type": "string"
            }
          ],
          "internalType": "struct Rentdapp.ApartmentStruct[]",
          "name": "Apartments",
          "type": "tuple[]"
        }
      ],
      "stateMutability": "view",
      "type": "function"
    },
    {
      "inputs": [
        {
          "internalType": "uint256",
          "name": "aid",
          "type": "uint256"
        },
        {
          "internalType": "uint256",
          "name": "bookingId",
          "type": "uint256"
        }
      ],
      "name": "getBooking",
      "outputs": [
        {
          "components": [
            {
              "internalType": "uint256",
              "name": "id",
              "type": "uint256"
            },
            {
              "internalType": "uint256",
              "name": "aid",
              "type": "uint256"
            },
            {
              "internalType": "address",
              "name": "tenant",
              "type": "address"
            },
            {
              "internalType": "uint256",
              "name": "date",
              "type": "uint256"
            },
            {
              "internalType": "uint256",
              "name": "price",
              "type": "uint256"
            },
            {
              "internalType": "bool",
              "name": "checked",
              "type": "bool"
            },
            {
              "internalType": "bool",
              "name": "cancelled",
              "type": "bool"
            }
          ],
          "internalType": "struct Rentdapp.BookingStruct",
          "name": "",
          "type": "tuple"
        }
      ],
      "stateMutability": "view",
      "type": "function"
    },
    {
      "inputs": [
        {
          "internalType": "uint256",
          "name": "aid",
          "type": "uint256"
        }
      ],
      "name": "getBookings",
      "outputs": [
        {
          "components": [
            {
              "internalType": "uint256",
              "name": "id",
              "type": "uint256"
            },
            {
              "internalType": "uint256",
              "name": "aid",
              "type": "uint256"
            },
            {
              "internalType": "address",
              "name": "tenant",
              "type": "address"
            },
            {
              "internalType": "uint256",
              "name": "date",
              "type": "uint256"
            },
            {
              "internalType": "uint256",
              "name": "price",
              "type": "uint256"
            },
            {
              "internalType": "bool",
              "name": "checked",
              "type": "bool"
            },
            {
              "internalType": "bool",
              "name": "cancelled",
              "type": "bool"
            }
          ],
          "internalType": "struct Rentdapp.BookingStruct[]",
          "name": "",
          "type": "tuple[]"
        }
      ],
      "stateMutability": "view",
      "type": "function"
    },
    {
      "inputs": [
        {
          "internalType": "uint256",
          "name": "aid",
          "type": "uint256"
        }
      ],
      "name": "getQualifiedReviewers",
      "outputs": [
        {
          "internalType": "address[]",
          "name": "Tenants",
          "type": "address[]"
        }
      ],
      "stateMutability": "view",
      "type": "function"
    },
    {
      "inputs": [
        {
          "internalType": "uint256",
          "name": "aid",
          "type": "uint256"
        }
      ],
      "name": "getReviews",
      "outputs": [
        {
          "components": [
            {
              "internalType": "uint256",
              "name": "id",
              "type": "uint256"
            },
            {
              "internalType": "uint256",
              "name": "aid",
              "type": "uint256"
            },
            {
              "internalType": "string",
              "name": "reviewText",
              "type": "string"
            },
            {
              "internalType": "uint256",
              "name": "timestamp",
              "type": "uint256"
            },
            {
              "internalType": "address",
              "name": "owner",
              "type": "address"
            }
          ],
          "internalType": "struct Rentdapp.ReviewStruct[]",
          "name": "",
          "type": "tuple[]"
        }
      ],
      "stateMutability": "view",
      "type": "function"
    },
    {
      "inputs": [
        {
          "internalType": "uint256",
          "name": "aid",
          "type": "uint256"
        }
      ],
      "name": "getUnavailableDates",
      "outputs": [
        {
          "internalType": "uint256[]",
          "name": "",
          "type": "uint256[]"
        }
      ],
      "stateMutability": "view",
      "type": "function"
    },
    {
      "inputs": [],
      "name": "owner",
      "outputs": [
        {
          "internalType": "address",
          "name": "",
          "type": "address"
        }
      ],
      "stateMutability": "view",
      "type": "function"
    },
    {
      "inputs": [
        {
          "internalType": "uint256",
          "name": "aid",
          "type": "uint256"
        },
        {
          "internalType": "uint256",
          "name": "bookingId",
          "type": "uint256"
        }
      ],
      "name": "refundBooking",
      "outputs": [],
      "stateMutability": "nonpayable",
      "type": "function"
    },
    {
      "inputs": [],
      "name": "renounceOwnership",
      "outputs": [],
      "stateMutability": "nonpayable",
      "type": "function"
    },
    {
      "inputs": [],
      "name": "securityFee",
      "outputs": [
        {
          "internalType": "uint256",
          "name": "",
          "type": "uint256"
        }
      ],
      "stateMutability": "view",
      "type": "function"
    },
    {
      "inputs": [],
      "name": "taxPercent",
      "outputs": [
        {
          "internalType": "uint256",
          "name": "",
          "type": "uint256"
        }
      ],
      "stateMutability": "view",
      "type": "function"
    },
    {
      "inputs": [
        {
          "internalType": "uint256",
          "name": "appartmentId",
          "type": "uint256"
        }
      ],
      "name": "tenantBooked",
      "outputs": [
        {
          "internalType": "bool",
          "name": "",
          "type": "bool"
        }
      ],
      "stateMutability": "view",
      "type": "function"
    },
    {
      "inputs": [
        {
          "internalType": "address",
          "name": "newOwner",
          "type": "address"
        }
      ],
      "name": "transferOwnership",
      "outputs": [],
      "stateMutability": "nonpayable",
      "type": "function"
    },
    {
      "inputs": [
        {
          "internalType": "uint256",
          "name": "id",
          "type": "uint256"
        },
        {
          "internalType": "string",
          "name": "name",
          "type": "string"
        },
        {
          "internalType": "string",
          "name": "description",
          "type": "string"
        },
        {
          "internalType": "string",
          "name": "category",
          "type": "string"
        },
        {
          "internalType": "string",
          "name": "location",
          "type": "string"
        },
        {
          "internalType": "string",
          "name": "images",
          "type": "string"
        },
        {
          "internalType": "uint256",
          "name": "rooms",
          "type": "uint256"
        },
        {
          "internalType": "uint256",
          "name": "price",
          "type": "uint256"
        }
      ],
      "name": "updateAppartment",
      "outputs": [],
      "stateMutability": "nonpayable",
      "type": "function"
    },
    {
      "stateMutability": "payable",
      "type": "receive"
    }
  ],
  "bytecode": "0x608060405234801561001057600080fd5b5033600073ffffffffffffffffffffffffffffffffffffffff168173ffffffffffffffffffffffffffffffffffffffff16036100845760006040517f1e4fbdf700000000000000000000000000000000000000000000000000000000815260040161007b91906101a5565b60405180910390fd5b610093816100a060201b60201c565b50600180819055506101c0565b60008060009054906101000a900473ffffffffffffffffffffffffffffffffffffffff169050816000806101000a81548173ffffffffffffffffffffffffffffffffffffffff021916908373ffffffffffffffffffffffffffffffffffffffff1602179055508173ffffffffffffffffffffffffffffffffffffffff168173ffffffffffffffffffffffffffffffffffffffff167f8be0079c531659141344cd1fd0a4f28419497f9722a3daafe3b4186f6b6457e060405160405180910390a35050565b600073ffffffffffffffffffffffffffffffffffffffff82169050919050565b600061018f82610164565b9050919050565b61019f81610184565b82525050565b60006020820190506101ba6000830184610196565b92915050565b615c15806101cf6000396000f3fe6080604052600436106101445760003560e01c8063963edd4e116100b6578063d68e13021161006f578063d68e130214610465578063db2f80b714610490578063dec30d39146104cd578063df6e0222146104f6578063f2fde38b14610512578063f40109951461053b5761014b565b8063963edd4e146103315780639d4a22551461035a5780639f31a2be14610397578063b1c98099146103d4578063b9b30ccb146103ff578063c4452e06146104285761014b565b80635fd63c56116101085780635fd63c561461024957806367626e5d14610272578063715018a61461029b5780637541f41c146102b257806378419f61146102dd5780638da5cb5b146103065761014b565b80630bb9ce3314610150578063455b30701461018d57806347a49fd9146101ca5780635872cf9c146101f55780635bb0c5d6146102205761014b565b3661014b57005b600080fd5b34801561015c57600080fd5b50610177600480360381019061017291906139d6565b610578565b6040516101849190613af3565b60405180910390f35b34801561019957600080fd5b506101b460048036038101906101af9190613b15565b610786565b6040516101c19190613c0d565b60405180910390f35b3480156101d657600080fd5b506101df610888565b6040516101ec9190613c37565b60405180910390f35b34801561020157600080fd5b5061020a61088e565b6040516102179190613c37565b60405180910390f35b34801561022c57600080fd5b5061024760048036038101906102429190613d98565b610894565b005b34801561025557600080fd5b50610270600480360381019061026b9190613df4565b610b18565b005b34801561027e57600080fd5b5061029960048036038101906102949190613b15565b610f51565b005b3480156102a757600080fd5b506102b0611423565b005b3480156102be57600080fd5b506102c7611437565b6040516102d49190613c37565b60405180910390f35b3480156102e957600080fd5b5061030460048036038101906102ff9190613b15565b61143c565b005b34801561031257600080fd5b5061031b611879565b6040516103289190613f31565b60405180910390f35b34801561033d57600080fd5b5061035860048036038101906103539190613f4c565b6118a2565b005b34801561036657600080fd5b50610381600480360381019061037c91906139d6565b611e0d565b60405161038e9190614245565b60405180910390f35b3480156103a357600080fd5b506103be60048036038101906103b991906139d6565b611f85565b6040516103cb9190614276565b60405180910390f35b3480156103e057600080fd5b506103e9611fec565b6040516103f69190614473565b60405180910390f35b34801561040b57600080fd5b5061042660048036038101906104219190613b15565b6124d7565b005b34801561043457600080fd5b5061044f600480360381019061044a91906139d6565b612867565b60405161045c91906145b5565b60405180910390f35b34801561047157600080fd5b5061047a612c23565b6040516104879190613c37565b60405180910390f35b34801561049c57600080fd5b506104b760048036038101906104b291906139d6565b612c28565b6040516104c49190614686565b60405180910390f35b3480156104d957600080fd5b506104f460048036038101906104ef91906139d6565b612c93565b005b610510600480360381019061050b9190614770565b612ef4565b005b34801561051e57600080fd5b50610539600480360381019061053491906147f8565b613380565b005b34801561054757600080fd5b50610562600480360381019061055d91906139d6565b613406565b60405161056f9190614962565b60405180910390f35b6060600080600090505b6005600085815260200190815260200160002080549050811015610605576005600085815260200190815260200160002081815481106105c5576105c4614984565b5b906000526020600020906006020160050160009054906101000a900460ff16156105f85781806105f4906149e2565b9250505b8080600101915050610582565b508067ffffffffffffffff8111156106205761061f613c6d565b5b60405190808252806020026020018201604052801561064e5781602001602082028036833780820191505090505b509150600080600090505b600560008681526020019081526020016000208054905081101561077e5760056000868152602001908152602001600020818154811061069c5761069b614984565b5b906000526020600020906006020160050160009054906101000a900460ff1615610771576005600086815260200190815260200160002081815481106106e5576106e4614984565b5b906000526020600020906006020160020160009054906101000a900473ffffffffffffffffffffffffffffffffffffffff16848380610723906149e2565b94508151811061073657610735614984565b5b602002602001019073ffffffffffffffffffffffffffffffffffffffff16908173ffffffffffffffffffffffffffffffffffffffff16815250505b8080600101915050610659565b505050919050565b61078e613818565b6005600084815260200190815260200160002082815481106107b3576107b2614984565b5b90600052602060002090600602016040518060e001604052908160008201548152602001600182015481526020016002820160009054906101000a900473ffffffffffffffffffffffffffffffffffffffff1673ffffffffffffffffffffffffffffffffffffffff1673ffffffffffffffffffffffffffffffffffffffff16815260200160038201548152602001600482015481526020016005820160009054906101000a900460ff161515151581526020016005820160019054906101000a900460ff161515151581525050905092915050565b60035481565b60025481565b6007600083815260200190815260200160002060009054906101000a900460ff166108f4576040517f08c379a00000000000000000000000000000000000000000000000000000000081526004016108eb90614a87565b60405180910390fd5b600a60003373ffffffffffffffffffffffffffffffffffffffff1673ffffffffffffffffffffffffffffffffffffffff168152602001908152602001600020600083815260200190815260200160002060009054906101000a900460ff16610991576040517f08c379a000000000000000000000000000000000000000000000000000000000815260040161098890614af3565b60405180910390fd5b60008151116109d5576040517f08c379a00000000000000000000000000000000000000000000000000000000081526004016109cc90614b5f565b60405180910390fd5b6109dd61386f565b828160200181815250506006600084815260200190815260200160002080549050816000018181525050818160400181905250610a1861352c565b81606001818152505033816080019073ffffffffffffffffffffffffffffffffffffffff16908173ffffffffffffffffffffffffffffffffffffffff16815250506006600084815260200190815260200160002081908060018154018082558091505060019003906000526020600020906005020160009091909190915060008201518160000155602082015181600101556040820151816002019081610abf9190614d8b565b506060820151816003015560808201518160040160006101000a81548173ffffffffffffffffffffffffffffffffffffffff021916908373ffffffffffffffffffffffffffffffffffffffff1602179055505050505050565b6000875111610b5c576040517f08c379a0000000000000000000000000000000000000000000000000000000008152600401610b5390614ea9565b60405180910390fd5b6000865111610ba0576040517f08c379a0000000000000000000000000000000000000000000000000000000008152600401610b9790614f15565b60405180910390fd5b6000855111610be4576040517f08c379a0000000000000000000000000000000000000000000000000000000008152600401610bdb90614f81565b60405180910390fd5b6000845111610c28576040517f08c379a0000000000000000000000000000000000000000000000000000000008152600401610c1f90614fed565b60405180910390fd5b6000835111610c6c576040517f08c379a0000000000000000000000000000000000000000000000000000000008152600401610c6390615059565b60405180910390fd5b60008211610caf576040517f08c379a0000000000000000000000000000000000000000000000000000000008152600401610ca6906150c5565b60405180910390fd5b60008111610cf2576040517f08c379a0000000000000000000000000000000000000000000000000000000008152600401610ce990615131565b60405180910390fd5b60026000815480929190610d05906149e2565b919050555060405180610180016040528060025481526020013373ffffffffffffffffffffffffffffffffffffffff168152602001428152602001828152602001838152602001600015158152602001600015158152602001888152602001878152602001858152602001848152602001868152506004600060025481526020019081526020016000206000820151816000015560208201518160010160006101000a81548173ffffffffffffffffffffffffffffffffffffffff021916908373ffffffffffffffffffffffffffffffffffffffff16021790555060408201518160020155606082015181600301556080820151816004015560a08201518160050160006101000a81548160ff02191690831515021790555060c08201518160050160016101000a81548160ff02191690831515021790555060e0820151816006019081610e539190614d8b565b50610100820151816007019081610e6a9190614d8b565b50610120820151816008019081610e819190614d8b565b50610140820151816009019081610e989190614d8b565b5061016082015181600a019081610eaf9190614d8b565b50905050600160076000600254815260200190815260200160002060006101000a81548160ff0219169083151502179055503373ffffffffffffffffffffffffffffffffffffffff168188604051610f07919061518d565b60405180910390207f6129ffb6f3beb35c9d53678c1cb25b7b5d068ebfa8a53c7a319ef1f0fe39e84b600254604051610f409190613c37565b60405180910390a450505050505050565b610f5961354c565b6000600560008481526020019081526020016000208281548110610f8057610f7f614984565b5b90600052602060002090600602016040518060e001604052908160008201548152602001600182015481526020016002820160009054906101000a900473ffffffffffffffffffffffffffffffffffffffff1673ffffffffffffffffffffffffffffffffffffffff1673ffffffffffffffffffffffffffffffffffffffff16815260200160038201548152602001600482015481526020016005820160009054906101000a900460ff161515151581526020016005820160019054906101000a900460ff16151515158152505090508060a0015115611094576040517f08c379a000000000000000000000000000000000000000000000000000000000815260040161108b90615216565b60405180910390fd5b6009600084815260200190815260200160002060008260600151815260200190815260200160002060009054906101000a900460ff16611109576040517f08c379a000000000000000000000000000000000000000000000000000000000815260040161110090615282565b60405180910390fd5b611111611879565b73ffffffffffffffffffffffffffffffffffffffff163373ffffffffffffffffffffffffffffffffffffffff161461120357806040015173ffffffffffffffffffffffffffffffffffffffff163373ffffffffffffffffffffffffffffffffffffffff16146111b5576040517f08c379a00000000000000000000000000000000000000000000000000000000081526004016111ac906152ee565b60405180910390fd5b6111bd61352c565b816060015111611202576040517f08c379a00000000000000000000000000000000000000000000000000000000081526004016111f990615380565b60405180910390fd5b5b600160056000858152602001908152602001600020838154811061122a57611229614984565b5b906000526020600020906006020160050160016101000a81548160ff02191690831515021790555060006009600085815260200190815260200160002060008360600151815260200190815260200160002060006101000a81548160ff0219169083151502179055506000600160086000868152602001908152602001600020805490506112b891906153a0565b905060006008600086815260200190815260200160002082815481106112e1576112e0614984565b5b906000526020600020015490508060086000878152602001908152602001600020858154811061131457611313614984565b5b906000526020600020018190555060086000868152602001908152602001600020805480611345576113446153d4565b5b6001900381819060005260206000200160009055905560006064600a85608001516113709190615403565b61137a9190615474565b905060006064600586608001516113919190615403565b61139b9190615474565b90506113dd6004600089815260200190815260200160002060010160009054906101000a900473ffffffffffffffffffffffffffffffffffffffff1682613592565b6113ee6113e8611879565b83613592565b611412338284886080015161140391906153a0565b61140d91906153a0565b613592565b505050505061141f61360d565b5050565b61142b613616565b611435600061369d565b565b600581565b61144461354c565b600060056000848152602001908152602001600020828154811061146b5761146a614984565b5b90600052602060002090600602016040518060e001604052908160008201548152602001600182015481526020016002820160009054906101000a900473ffffffffffffffffffffffffffffffffffffffff1673ffffffffffffffffffffffffffffffffffffffff1673ffffffffffffffffffffffffffffffffffffffff16815260200160038201548152602001600482015481526020016005820160009054906101000a900460ff161515151581526020016005820160019054906101000a900460ff1615151515815250509050806040015173ffffffffffffffffffffffffffffffffffffffff163373ffffffffffffffffffffffffffffffffffffffff16146115ac576040517f08c379a00000000000000000000000000000000000000000000000000000000081526004016115a3906152ee565b60405180910390fd5b8060a00151156115f1576040517f08c379a00000000000000000000000000000000000000000000000000000000081526004016115e8906154f1565b60405180910390fd5b6007600084815260200190815260200160002060009054906101000a900460ff16611651576040517f08c379a00000000000000000000000000000000000000000000000000000000081526004016116489061555d565b60405180910390fd5b8060c0015115611696576040517f08c379a000000000000000000000000000000000000000000000000000000000815260040161168d906155c9565b60405180910390fd5b80606001514210156116dd576040517f08c379a00000000000000000000000000000000000000000000000000000000081526004016116d490615635565b60405180910390fd5b6201518081606001516116f09190615655565b421115611732576040517f08c379a0000000000000000000000000000000000000000000000000000000008152600401611729906156d5565b60405180910390fd5b600160056000858152602001908152602001600020838154811061175957611758614984565b5b906000526020600020906006020160050160006101000a81548160ff02191690831515021790555060006064600a83608001516117969190615403565b6117a09190615474565b90506001600a60003373ffffffffffffffffffffffffffffffffffffffff1673ffffffffffffffffffffffffffffffffffffffff168152602001908152602001600020600086815260200190815260200160002060006101000a81548160ff02191690831515021790555061185a6004600086815260200190815260200160002060010160009054906101000a900473ffffffffffffffffffffffffffffffffffffffff1682846080015161185591906153a0565b613592565b61186b611865611879565b82613592565b505061187561360d565b5050565b60008060009054906101000a900473ffffffffffffffffffffffffffffffffffffffff16905090565b6007600089815260200190815260200160002060009054906101000a900460ff16611902576040517f08c379a00000000000000000000000000000000000000000000000000000000081526004016118f990615741565b60405180910390fd5b6004600089815260200190815260200160002060010160009054906101000a900473ffffffffffffffffffffffffffffffffffffffff1673ffffffffffffffffffffffffffffffffffffffff163373ffffffffffffffffffffffffffffffffffffffff16146119a6576040517f08c379a000000000000000000000000000000000000000000000000000000000815260040161199d906157ad565b60405180910390fd5b6000875111156119d95786600460008a815260200190815260200160002060060190816119d39190614d8b565b50611a3f565b6000600460008a815260200190815260200160002060060180546119fc90614bae565b905011611a3e576040517f08c379a0000000000000000000000000000000000000000000000000000000008152600401611a3590614ea9565b60405180910390fd5b5b600086511115611a725785600460008a81526020019081526020016000206007019081611a6c9190614d8b565b50611ad8565b6000600460008a81526020019081526020016000206007018054611a9590614bae565b905011611ad7576040517f08c379a0000000000000000000000000000000000000000000000000000000008152600401611ace90614f15565b60405180910390fd5b5b600085511115611b0b5784600460008a8152602001908152602001600020600a019081611b059190614d8b565b50611b71565b6000600460008a8152602001908152602001600020600a018054611b2e90614bae565b905011611b70576040517f08c379a0000000000000000000000000000000000000000000000000000000008152600401611b6790615819565b60405180910390fd5b5b600084511115611ba45783600460008a81526020019081526020016000206008019081611b9e9190614d8b565b50611c0a565b6000600460008a81526020019081526020016000206008018054611bc790614bae565b905011611c09576040517f08c379a0000000000000000000000000000000000000000000000000000000008152600401611c0090614fed565b60405180910390fd5b5b600083511115611c3d5782600460008a81526020019081526020016000206009019081611c379190614d8b565b50611ca3565b6000600460008a81526020019081526020016000206009018054611c6090614bae565b905011611ca2576040517f08c379a0000000000000000000000000000000000000000000000000000000008152600401611c9990615059565b60405180910390fd5b5b6000821115611ccc5781600460008a815260200190815260200160002060040181905550611d26565b6000600460008a81526020019081526020016000206004015411611d25576040517f08c379a0000000000000000000000000000000000000000000000000000000008152600401611d1c906150c5565b60405180910390fd5b5b6000811115611d4f5780600460008a815260200190815260200160002060030181905550611da9565b6000600460008a81526020019081526020016000206003015411611da8576040517f08c379a0000000000000000000000000000000000000000000000000000000008152600401611d9f90615131565b60405180910390fd5b5b3373ffffffffffffffffffffffffffffffffffffffff168188604051611dcf919061518d565b60405180910390207f219242c38af47599659b8884972ac47cbae53eecb21cd56fbc1a7355e96e66cf60405160405180910390a45050505050505050565b606060066000838152602001908152602001600020805480602002602001604051908101604052809291908181526020016000905b82821015611f7a57838290600052602060002090600502016040518060a00160405290816000820154815260200160018201548152602001600282018054611e8990614bae565b80601f0160208091040260200160405190810160405280929190818152602001828054611eb590614bae565b8015611f025780601f10611ed757610100808354040283529160200191611f02565b820191906000526020600020905b815481529060010190602001808311611ee557829003601f168201915b50505050508152602001600382015481526020016004820160009054906101000a900473ffffffffffffffffffffffffffffffffffffffff1673ffffffffffffffffffffffffffffffffffffffff1673ffffffffffffffffffffffffffffffffffffffff168152505081526020019060010190611e42565b505050509050919050565b6000600a60003373ffffffffffffffffffffffffffffffffffffffff1673ffffffffffffffffffffffffffffffffffffffff168152602001908152602001600020600083815260200190815260200160002060009054906101000a900460ff169050919050565b606060008060025490506000600190505b60018261200a9190615655565b811015612055576004600082815260200190815260200160002060050160019054906101000a900460ff16612048578280612044906149e2565b9350505b8080600101915050611ffd565b508167ffffffffffffffff8111156120705761206f613c6d565b5b6040519080825280602002602001820160405280156120a957816020015b6120966138b4565b81526020019060019003908161208e5790505b509250600080600190505b60025481116124d0576004600082815260200190815260200160002060050160019054906101000a900460ff166124bd576004600082815260200190815260200160002060405180610180016040529081600082015481526020016001820160009054906101000a900473ffffffffffffffffffffffffffffffffffffffff1673ffffffffffffffffffffffffffffffffffffffff1673ffffffffffffffffffffffffffffffffffffffff1681526020016002820154815260200160038201548152602001600482015481526020016005820160009054906101000a900460ff161515151581526020016005820160019054906101000a900460ff161515151581526020016006820180546121c890614bae565b80601f01602080910402602001604051908101604052809291908181526020018280546121f490614bae565b80156122415780601f1061221657610100808354040283529160200191612241565b820191906000526020600020905b81548152906001019060200180831161222457829003601f168201915b5050505050815260200160078201805461225a90614bae565b80601f016020809104026020016040519081016040528092919081815260200182805461228690614bae565b80156122d35780601f106122a8576101008083540402835291602001916122d3565b820191906000526020600020905b8154815290600101906020018083116122b657829003601f168201915b505050505081526020016008820180546122ec90614bae565b80601f016020809104026020016040519081016040528092919081815260200182805461231890614bae565b80156123655780601f1061233a57610100808354040283529160200191612365565b820191906000526020600020905b81548152906001019060200180831161234857829003601f168201915b5050505050815260200160098201805461237e90614bae565b80601f01602080910402602001604051908101604052809291908181526020018280546123aa90614bae565b80156123f75780601f106123cc576101008083540402835291602001916123f7565b820191906000526020600020905b8154815290600101906020018083116123da57829003601f168201915b50505050508152602001600a8201805461241090614bae565b80601f016020809104026020016040519081016040528092919081815260200182805461243c90614bae565b80156124895780601f1061245e57610100808354040283529160200191612489565b820191906000526020600020905b81548152906001019060200180831161246c57829003601f168201915b50505050508152505085838061249e906149e2565b9450815181106124b1576124b0614984565b5b60200260200101819052505b80806124c8906149e2565b9150506120b4565b5050505090565b6124df61354c565b600060056000848152602001908152602001600020828154811061250657612505614984565b5b90600052602060002090600602016040518060e001604052908160008201548152602001600182015481526020016002820160009054906101000a900473ffffffffffffffffffffffffffffffffffffffff1673ffffffffffffffffffffffffffffffffffffffff1673ffffffffffffffffffffffffffffffffffffffff16815260200160038201548152602001600482015481526020016005820160009054906101000a900460ff161515151581526020016005820160019054906101000a900460ff1615151515815250509050806040015173ffffffffffffffffffffffffffffffffffffffff163373ffffffffffffffffffffffffffffffffffffffff1614612647576040517f08c379a000000000000000000000000000000000000000000000000000000000815260040161263e90615885565b60405180910390fd5b8060a0015161268b576040517f08c379a0000000000000000000000000000000000000000000000000000000008152600401612682906158f1565b60405180910390fd5b6009600084815260200190815260200160002060008260600151815260200190815260200160002060009054906101000a900460ff16612700576040517f08c379a00000000000000000000000000000000000000000000000000000000081526004016126f790615282565b60405180910390fd5b600160056000858152602001908152602001600020838154811061272757612726614984565b5b906000526020600020906006020160050160016101000a81548160ff02191690831515021790555060006009600085815260200190815260200160002060008360600151815260200190815260200160002060006101000a81548160ff0219169083151502179055506000600160086000868152602001908152602001600020805490506127b591906153a0565b905060006008600086815260200190815260200160002082815481106127de576127dd614984565b5b906000526020600020015490508060086000878152602001908152602001600020858154811061281157612810614984565b5b906000526020600020018190555060086000868152602001908152602001600020805480612842576128416153d4565b5b6001900381819060005260206000200160009055905550505061286361360d565b5050565b61286f6138b4565b6004600083815260200190815260200160002060405180610180016040529081600082015481526020016001820160009054906101000a900473ffffffffffffffffffffffffffffffffffffffff1673ffffffffffffffffffffffffffffffffffffffff1673ffffffffffffffffffffffffffffffffffffffff1681526020016002820154815260200160038201548152602001600482015481526020016005820160009054906101000a900460ff161515151581526020016005820160019054906101000a900460ff1615151515815260200160068201805461295290614bae565b80601f016020809104026020016040519081016040528092919081815260200182805461297e90614bae565b80156129cb5780601f106129a0576101008083540402835291602001916129cb565b820191906000526020600020905b8154815290600101906020018083116129ae57829003601f168201915b505050505081526020016007820180546129e490614bae565b80601f0160208091040260200160405190810160405280929190818152602001828054612a1090614bae565b8015612a5d5780601f10612a3257610100808354040283529160200191612a5d565b820191906000526020600020905b815481529060010190602001808311612a4057829003601f168201915b50505050508152602001600882018054612a7690614bae565b80601f0160208091040260200160405190810160405280929190818152602001828054612aa290614bae565b8015612aef5780601f10612ac457610100808354040283529160200191612aef565b820191906000526020600020905b815481529060010190602001808311612ad257829003601f168201915b50505050508152602001600982018054612b0890614bae565b80601f0160208091040260200160405190810160405280929190818152602001828054612b3490614bae565b8015612b815780601f10612b5657610100808354040283529160200191612b81565b820191906000526020600020905b815481529060010190602001808311612b6457829003601f168201915b50505050508152602001600a82018054612b9a90614bae565b80601f0160208091040260200160405190810160405280929190818152602001828054612bc690614bae565b8015612c135780601f10612be857610100808354040283529160200191612c13565b820191906000526020600020905b815481529060010190602001808311612bf657829003601f168201915b5050505050815250509050919050565b600a81565b606060086000838152602001908152602001600020805480602002602001604051908101604052809291908181526020018280548015612c8757602002820191906000526020600020905b815481526020019060010190808311612c73575b50505050509050919050565b600115156007600083815260200190815260200160002060009054906101000a900460ff16151514612cfa576040517f08c379a0000000000000000000000000000000000000000000000000000000008152600401612cf190615741565b60405180910390fd5b3373ffffffffffffffffffffffffffffffffffffffff166004600083815260200190815260200160002060010160009054906101000a900473ffffffffffffffffffffffffffffffffffffffff1673ffffffffffffffffffffffffffffffffffffffff1614612d9e576040517f08c379a0000000000000000000000000000000000000000000000000000000008152600401612d959061595d565b60405180910390fd5b6007600082815260200190815260200160002060006101000a81549060ff0219169055600460008281526020019081526020016000206000808201600090556001820160006101000a81549073ffffffffffffffffffffffffffffffffffffffff02191690556002820160009055600382016000905560048201600090556005820160006101000a81549060ff02191690556005820160016101000a81549060ff0219169055600682016000612e54919061392f565b600782016000612e64919061392f565b600882016000612e74919061392f565b600982016000612e84919061392f565b600a82016000612e94919061392f565b505060006007600083815260200190815260200160002060006101000a81548160ff02191690831515021790555060016004600083815260200190815260200160002060050160016101000a81548160ff02191690831515021790555050565b612efc61354c565b6007600083815260200190815260200160002060009054906101000a900460ff16612f5c576040517f08c379a0000000000000000000000000000000000000000000000000000000008152600401612f53906159c9565b60405180910390fd5b6000815190506000816004600086815260200190815260200160002060030154612f869190615403565b905060006064600a83612f999190615403565b612fa39190615474565b905060008183612fb39190615655565b905080341015612ff8576040517f08c379a0000000000000000000000000000000000000000000000000000000008152600401612fef90615a35565b60405180910390fd5b6130028686613761565b613041576040517f08c379a000000000000000000000000000000000000000000000000000000000815260040161303890615aa1565b60405180910390fd5b60005b855181101561336f574286828151811061306157613060614984565b5b6020026020010151116130a9576040517f08c379a00000000000000000000000000000000000000000000000000000000081526004016130a090615b0d565b60405180910390fd5b600081111561313557856001826130c091906153a0565b815181106130d1576130d0614984565b5b60200260200101518682815181106130ec576130eb614984565b5b602002602001015111613134576040517f08c379a000000000000000000000000000000000000000000000000000000000815260040161312b90615b79565b60405180910390fd5b5b600560008881526020019081526020016000206040518060e00160405280600560008b81526020019081526020016000208054905081526020018981526020013373ffffffffffffffffffffffffffffffffffffffff1681526020018884815181106131a4576131a3614984565b5b60200260200101518152602001600460008b8152602001908152602001600020600301548152602001600015158152602001600015158152509080600181540180825580915050600190039060005260206000209060060201600090919091909150600082015181600001556020820151816001015560408201518160020160006101000a81548173ffffffffffffffffffffffffffffffffffffffff021916908373ffffffffffffffffffffffffffffffffffffffff160217905550606082015181600301556080820151816004015560a08201518160050160006101000a81548160ff02191690831515021790555060c08201518160050160016101000a81548160ff021916908315150217905550505060016009600089815260200190815260200160002060008884815181106132e1576132e0614984565b5b6020026020010151815260200190815260200160002060006101000a81548160ff0219169083151502179055506008600088815260200190815260200160002086828151811061333457613333614984565b5b602002602001015190806001815401808255809150506001900390600052602060002001600090919091909150558080600101915050613044565b505050505061337c61360d565b5050565b613388613616565b600073ffffffffffffffffffffffffffffffffffffffff168173ffffffffffffffffffffffffffffffffffffffff16036133fa5760006040517f1e4fbdf70000000000000000000000000000000000000000000000000000000081526004016133f19190613f31565b60405180910390fd5b6134038161369d565b50565b606060056000838152602001908152602001600020805480602002602001604051908101604052809291908181526020016000905b8282101561352157838290600052602060002090600602016040518060e001604052908160008201548152602001600182015481526020016002820160009054906101000a900473ffffffffffffffffffffffffffffffffffffffff1673ffffffffffffffffffffffffffffffffffffffff1673ffffffffffffffffffffffffffffffffffffffff16815260200160038201548152602001600482015481526020016005820160009054906101000a900460ff161515151581526020016005820160019054906101000a900460ff1615151515815250508152602001906001019061343b565b505050509050919050565b60006103e8804261353d9190615403565b6135479190615655565b905090565b600260015403613588576040517f3ee5aeb500000000000000000000000000000000000000000000000000000000815260040160405180910390fd5b6002600181905550565b60008273ffffffffffffffffffffffffffffffffffffffff16826040516135b890615bca565b60006040518083038185875af1925050503d80600081146135f5576040519150601f19603f3d011682016040523d82523d6000602084013e6135fa565b606091505b505090508061360857600080fd5b505050565b60018081905550565b61361e613810565b73ffffffffffffffffffffffffffffffffffffffff1661363c611879565b73ffffffffffffffffffffffffffffffffffffffff161461369b5761365f613810565b6040517f118cdaa70000000000000000000000000000000000000000000000000000000081526004016136929190613f31565b60405180910390fd5b565b60008060009054906101000a900473ffffffffffffffffffffffffffffffffffffffff169050816000806101000a81548173ffffffffffffffffffffffffffffffffffffffff021916908373ffffffffffffffffffffffffffffffffffffffff1602179055508173ffffffffffffffffffffffffffffffffffffffff168173ffffffffffffffffffffffffffffffffffffffff167f8be0079c531659141344cd1fd0a4f28419497f9722a3daafe3b4186f6b6457e060405160405180910390a35050565b6000806001905060005b83518110156138055760005b60086000878152602001908152602001600020805490508110156137f7576008600087815260200190815260200160002081815481106137ba576137b9614984565b5b90600052602060002001548583815181106137d8576137d7614984565b5b6020026020010151036137ea57600092505b8080600101915050613777565b50808060010191505061376b565b508091505092915050565b600033905090565b6040518060e001604052806000815260200160008152602001600073ffffffffffffffffffffffffffffffffffffffff16815260200160008152602001600081526020016000151581526020016000151581525090565b6040518060a0016040528060008152602001600081526020016060815260200160008152602001600073ffffffffffffffffffffffffffffffffffffffff1681525090565b60405180610180016040528060008152602001600073ffffffffffffffffffffffffffffffffffffffff16815260200160008152602001600081526020016000815260200160001515815260200160001515815260200160608152602001606081526020016060815260200160608152602001606081525090565b50805461393b90614bae565b6000825580601f1061394d575061396c565b601f01602090049060005260206000209081019061396b919061396f565b5b50565b5b80821115613988576000816000905550600101613970565b5090565b6000604051905090565b600080fd5b600080fd5b6000819050919050565b6139b3816139a0565b81146139be57600080fd5b50565b6000813590506139d0816139aa565b92915050565b6000602082840312156139ec576139eb613996565b5b60006139fa848285016139c1565b91505092915050565b600081519050919050565b600082825260208201905092915050565b6000819050602082019050919050565b600073ffffffffffffffffffffffffffffffffffffffff82169050919050565b6000613a5a82613a2f565b9050919050565b613a6a81613a4f565b82525050565b6000613a7c8383613a61565b60208301905092915050565b6000602082019050919050565b6000613aa082613a03565b613aaa8185613a0e565b9350613ab583613a1f565b8060005b83811015613ae6578151613acd8882613a70565b9750613ad883613a88565b925050600181019050613ab9565b5085935050505092915050565b60006020820190508181036000830152613b0d8184613a95565b905092915050565b60008060408385031215613b2c57613b2b613996565b5b6000613b3a858286016139c1565b9250506020613b4b858286016139c1565b9150509250929050565b613b5e816139a0565b82525050565b60008115159050919050565b613b7981613b64565b82525050565b60e082016000820151613b956000850182613b55565b506020820151613ba86020850182613b55565b506040820151613bbb6040850182613a61565b506060820151613bce6060850182613b55565b506080820151613be16080850182613b55565b5060a0820151613bf460a0850182613b70565b5060c0820151613c0760c0850182613b70565b50505050565b600060e082019050613c226000830184613b7f565b92915050565b613c31816139a0565b82525050565b6000602082019050613c4c6000830184613c28565b92915050565b600080fd5b600080fd5b6000601f19601f8301169050919050565b7f4e487b7100000000000000000000000000000000000000000000000000000000600052604160045260246000fd5b613ca582613c5c565b810181811067ffffffffffffffff82111715613cc457613cc3613c6d565b5b80604052505050565b6000613cd761398c565b9050613ce38282613c9c565b919050565b600067ffffffffffffffff821115613d0357613d02613c6d565b5b613d0c82613c5c565b9050602081019050919050565b82818337600083830152505050565b6000613d3b613d3684613ce8565b613ccd565b905082815260208101848484011115613d5757613d56613c57565b5b613d62848285613d19565b509392505050565b600082601f830112613d7f57613d7e613c52565b5b8135613d8f848260208601613d28565b91505092915050565b60008060408385031215613daf57613dae613996565b5b6000613dbd858286016139c1565b925050602083013567ffffffffffffffff811115613dde57613ddd61399b565b5b613dea85828601613d6a565b9150509250929050565b600080600080600080600060e0888a031215613e1357613e12613996565b5b600088013567ffffffffffffffff811115613e3157613e3061399b565b5b613e3d8a828b01613d6a565b975050602088013567ffffffffffffffff811115613e5e57613e5d61399b565b5b613e6a8a828b01613d6a565b965050604088013567ffffffffffffffff811115613e8b57613e8a61399b565b5b613e978a828b01613d6a565b955050606088013567ffffffffffffffff811115613eb857613eb761399b565b5b613ec48a828b01613d6a565b945050608088013567ffffffffffffffff811115613ee557613ee461399b565b5b613ef18a828b01613d6a565b93505060a0613f028a828b016139c1565b92505060c0613f138a828b016139c1565b91505092959891949750929550565b613f2b81613a4f565b82525050565b6000602082019050613f466000830184613f22565b92915050565b600080600080600080600080610100898b031215613f6d57613f6c613996565b5b6000613f7b8b828c016139c1565b985050602089013567ffffffffffffffff811115613f9c57613f9b61399b565b5b613fa88b828c01613d6a565b975050604089013567ffffffffffffffff811115613fc957613fc861399b565b5b613fd58b828c01613d6a565b965050606089013567ffffffffffffffff811115613ff657613ff561399b565b5b6140028b828c01613d6a565b955050608089013567ffffffffffffffff8111156140235761402261399b565b5b61402f8b828c01613d6a565b94505060a089013567ffffffffffffffff8111156140505761404f61399b565b5b61405c8b828c01613d6a565b93505060c061406d8b828c016139c1565b92505060e061407e8b828c016139c1565b9150509295985092959890939650565b600081519050919050565b600082825260208201905092915050565b6000819050602082019050919050565b600081519050919050565b600082825260208201905092915050565b60005b838110156140f45780820151818401526020810190506140d9565b60008484015250505050565b600061410b826140ba565b61411581856140c5565b93506141258185602086016140d6565b61412e81613c5c565b840191505092915050565b600060a0830160008301516141516000860182613b55565b5060208301516141646020860182613b55565b506040830151848203604086015261417c8282614100565b91505060608301516141916060860182613b55565b5060808301516141a46080860182613a61565b508091505092915050565b60006141bb8383614139565b905092915050565b6000602082019050919050565b60006141db8261408e565b6141e58185614099565b9350836020820285016141f7856140aa565b8060005b85811015614233578484038952815161421485826141af565b945061421f836141c3565b925060208a019950506001810190506141fb565b50829750879550505050505092915050565b6000602082019050818103600083015261425f81846141d0565b905092915050565b61427081613b64565b82525050565b600060208201905061428b6000830184614267565b92915050565b600081519050919050565b600082825260208201905092915050565b6000819050602082019050919050565b6000610180830160008301516142d66000860182613b55565b5060208301516142e96020860182613a61565b5060408301516142fc6040860182613b55565b50606083015161430f6060860182613b55565b5060808301516143226080860182613b55565b5060a083015161433560a0860182613b70565b5060c083015161434860c0860182613b70565b5060e083015184820360e08601526143608282614100565b91505061010083015184820361010086015261437c8282614100565b9150506101208301518482036101208601526143988282614100565b9150506101408301518482036101408601526143b48282614100565b9150506101608301518482036101608601526143d08282614100565b9150508091505092915050565b60006143e983836142bd565b905092915050565b6000602082019050919050565b600061440982614291565b614413818561429c565b935083602082028501614425856142ad565b8060005b85811015614461578484038952815161444285826143dd565b945061444d836143f1565b925060208a01995050600181019050614429565b50829750879550505050505092915050565b6000602082019050818103600083015261448d81846143fe565b905092915050565b6000610180830160008301516144ae6000860182613b55565b5060208301516144c16020860182613a61565b5060408301516144d46040860182613b55565b5060608301516144e76060860182613b55565b5060808301516144fa6080860182613b55565b5060a083015161450d60a0860182613b70565b5060c083015161452060c0860182613b70565b5060e083015184820360e08601526145388282614100565b9150506101008301518482036101008601526145548282614100565b9150506101208301518482036101208601526145708282614100565b91505061014083015184820361014086015261458c8282614100565b9150506101608301518482036101608601526145a88282614100565b9150508091505092915050565b600060208201905081810360008301526145cf8184614495565b905092915050565b600081519050919050565b600082825260208201905092915050565b6000819050602082019050919050565b600061460f8383613b55565b60208301905092915050565b6000602082019050919050565b6000614633826145d7565b61463d81856145e2565b9350614648836145f3565b8060005b838110156146795781516146608882614603565b975061466b8361461b565b92505060018101905061464c565b5085935050505092915050565b600060208201905081810360008301526146a08184614628565b905092915050565b600067ffffffffffffffff8211156146c3576146c2613c6d565b5b602082029050602081019050919050565b600080fd5b60006146ec6146e7846146a8565b613ccd565b9050808382526020820190506020840283018581111561470f5761470e6146d4565b5b835b81811015614738578061472488826139c1565b845260208401935050602081019050614711565b5050509392505050565b600082601f83011261475757614756613c52565b5b81356147678482602086016146d9565b91505092915050565b6000806040838503121561478757614786613996565b5b6000614795858286016139c1565b925050602083013567ffffffffffffffff8111156147b6576147b561399b565b5b6147c285828601614742565b9150509250929050565b6147d581613a4f565b81146147e057600080fd5b50565b6000813590506147f2816147cc565b92915050565b60006020828403121561480e5761480d613996565b5b600061481c848285016147e3565b91505092915050565b600081519050919050565b600082825260208201905092915050565b6000819050602082019050919050565b60e0820160008201516148676000850182613b55565b50602082015161487a6020850182613b55565b50604082015161488d6040850182613a61565b5060608201516148a06060850182613b55565b5060808201516148b36080850182613b55565b5060a08201516148c660a0850182613b70565b5060c08201516148d960c0850182613b70565b50505050565b60006148eb8383614851565b60e08301905092915050565b6000602082019050919050565b600061490f82614825565b6149198185614830565b935061492483614841565b8060005b8381101561495557815161493c88826148df565b9750614947836148f7565b925050600181019050614928565b5085935050505092915050565b6000602082019050818103600083015261497c8184614904565b905092915050565b7f4e487b7100000000000000000000000000000000000000000000000000000000600052603260045260246000fd5b7f4e487b7100000000000000000000000000000000000000000000000000000000600052601160045260246000fd5b60006149ed826139a0565b91507fffffffffffffffffffffffffffffffffffffffffffffffffffffffffffffffff8203614a1f57614a1e6149b3565b5b600182019050919050565b600082825260208201905092915050565b7f4170706172746d656e74206e6f7420617661696c61626c650000000000000000600082015250565b6000614a71601883614a2a565b9150614a7c82614a3b565b602082019050919050565b60006020820190508181036000830152614aa081614a64565b9050919050565b7f426f6f6b206669727374206265666f7265207265766965770000000000000000600082015250565b6000614add601883614a2a565b9150614ae882614aa7565b602082019050919050565b60006020820190508181036000830152614b0c81614ad0565b9050919050565b7f52657669657720746578742063616e6e6f7420626520656d7074790000000000600082015250565b6000614b49601b83614a2a565b9150614b5482614b13565b602082019050919050565b60006020820190508181036000830152614b7881614b3c565b9050919050565b7f4e487b7100000000000000000000000000000000000000000000000000000000600052602260045260246000fd5b60006002820490506001821680614bc657607f821691505b602082108103614bd957614bd8614b7f565b5b50919050565b60008190508160005260206000209050919050565b60006020601f8301049050919050565b600082821b905092915050565b600060088302614c417fffffffffffffffffffffffffffffffffffffffffffffffffffffffffffffffff82614c04565b614c4b8683614c04565b95508019841693508086168417925050509392505050565b6000819050919050565b6000614c88614c83614c7e846139a0565b614c63565b6139a0565b9050919050565b6000819050919050565b614ca283614c6d565b614cb6614cae82614c8f565b848454614c11565b825550505050565b600090565b614ccb614cbe565b614cd6818484614c99565b505050565b5b81811015614cfa57614cef600082614cc3565b600181019050614cdc565b5050565b601f821115614d3f57614d1081614bdf565b614d1984614bf4565b81016020851015614d28578190505b614d3c614d3485614bf4565b830182614cdb565b50505b505050565b600082821c905092915050565b6000614d6260001984600802614d44565b1980831691505092915050565b6000614d7b8383614d51565b9150826002028217905092915050565b614d94826140ba565b67ffffffffffffffff811115614dad57614dac613c6d565b5b614db78254614bae565b614dc2828285614cfe565b600060209050601f831160018114614df55760008415614de3578287015190505b614ded8582614d6f565b865550614e55565b601f198416614e0386614bdf565b60005b82811015614e2b57848901518255600182019150602085019450602081019050614e06565b86831015614e485784890151614e44601f891682614d51565b8355505b6001600288020188555050505b505050505050565b7f4e616d652063616e6e6f7420626520656d707479000000000000000000000000600082015250565b6000614e93601483614a2a565b9150614e9e82614e5d565b602082019050919050565b60006020820190508181036000830152614ec281614e86565b9050919050565b7f4465736372697074696f6e2063616e6e6f7420626520656d7074790000000000600082015250565b6000614eff601b83614a2a565b9150614f0a82614ec9565b602082019050919050565b60006020820190508181036000830152614f2e81614ef2565b9050919050565b7f4361746f676f72792063616e6e6f7420626520656d7074790000000000000000600082015250565b6000614f6b601883614a2a565b9150614f7682614f35565b602082019050919050565b60006020820190508181036000830152614f9a81614f5e565b9050919050565b7f4c6f636174696f6e2063616e6e6f7420626520656d7074790000000000000000600082015250565b6000614fd7601883614a2a565b9150614fe282614fa1565b602082019050919050565b6000602082019050818103600083015261500681614fca565b9050919050565b7f496d616765732063616e6e6f7420626520656d70747900000000000000000000600082015250565b6000615043601683614a2a565b915061504e8261500d565b602082019050919050565b6000602082019050818103600083015261507281615036565b9050919050565b7f526f6f6d732063616e6e6f74206265207a65726f000000000000000000000000600082015250565b60006150af601483614a2a565b91506150ba82615079565b602082019050919050565b600060208201905081810360008301526150de816150a2565b9050919050565b7f50726963652063616e6e6f74206265207a65726f000000000000000000000000600082015250565b600061511b601483614a2a565b9150615126826150e5565b602082019050919050565b6000602082019050818103600083015261514a8161510e565b9050919050565b600081905092915050565b6000615167826140ba565b6151718185615151565b93506151818185602086016140d6565b80840191505092915050565b6000615199828461515c565b915081905092915050565b7f41706172746d656e7420616c726561647920636865636b6564206f6e2074686960008201527f7320646174652100000000000000000000000000000000000000000000000000602082015250565b6000615200602783614a2a565b915061520b826151a4565b604082019050919050565b6000602082019050818103600083015261522f816151f3565b9050919050565b7f446964206e6f7420626f6f6b206f6e2074686973206461746521000000000000600082015250565b600061526c601a83614a2a565b915061527782615236565b602082019050919050565b6000602082019050818103600083015261529b8161525f565b9050919050565b7f556e617574686f72697a65642074656e616e7421000000000000000000000000600082015250565b60006152d8601483614a2a565b91506152e3826152a2565b602082019050919050565b60006020820190508181036000830152615307816152cb565b9050919050565b7f43616e206e6f206c6f6e67657220726566756e642c20626f6f6b696e6720646160008201527f7465207374617274656400000000000000000000000000000000000000000000602082015250565b600061536a602a83614a2a565b91506153758261530e565b604082019050919050565b600060208201905081810360008301526153998161535d565b9050919050565b60006153ab826139a0565b91506153b6836139a0565b92508282039050818111156153ce576153cd6149b3565b5b92915050565b7f4e487b7100000000000000000000000000000000000000000000000000000000600052603160045260246000fd5b600061540e826139a0565b9150615419836139a0565b9250828202615427816139a0565b9150828204841483151761543e5761543d6149b3565b5b5092915050565b7f4e487b7100000000000000000000000000000000000000000000000000000000600052601260045260246000fd5b600061547f826139a0565b915061548a836139a0565b92508261549a57615499615445565b5b828204905092915050565b7f41706172746d656e7420616c726561647920636865636b656420696e21000000600082015250565b60006154db601d83614a2a565b91506154e6826154a5565b602082019050919050565b6000602082019050818103600083015261550a816154ce565b9050919050565b7f41706172746d656e7420646f6573206e6f742065786973742100000000000000600082015250565b6000615547601983614a2a565b915061555282615511565b602082019050919050565b600060208201905081810360008301526155768161553a565b9050919050565b7f426f6f6b696e6720686173206265656e2063616e63656c6c6564210000000000600082015250565b60006155b3601b83614a2a565b91506155be8261557d565b602082019050919050565b600060208201905081810360008301526155e2816155a6565b9050919050565b7f436865636b2d696e2064617465206e6f74207265616368656420796574210000600082015250565b600061561f601e83614a2a565b915061562a826155e9565b602082019050919050565b6000602082019050818103600083015261564e81615612565b9050919050565b6000615660826139a0565b915061566b836139a0565b9250828201905080821115615683576156826149b3565b5b92915050565b7f436865636b2d696e20706572696f642065787069726564210000000000000000600082015250565b60006156bf601883614a2a565b91506156ca82615689565b602082019050919050565b600060208201905081810360008301526156ee816156b2565b9050919050565b7f4170706172746d656e74206e6f7420666f756e64000000000000000000000000600082015250565b600061572b601483614a2a565b9150615736826156f5565b602082019050919050565b6000602082019050818103600083015261575a8161571e565b9050919050565b7f556e617574686f72697a65642c206f776e6572206f6e6c790000000000000000600082015250565b6000615797601883614a2a565b91506157a282615761565b602082019050919050565b600060208201905081810360008301526157c68161578a565b9050919050565b7f43617465676f72792063616e6e6f7420626520656d7074790000000000000000600082015250565b6000615803601883614a2a565b915061580e826157cd565b602082019050919050565b60006020820190508181036000830152615832816157f6565b9050919050565b7f556e617574686f72697a656420456e7469747900000000000000000000000000600082015250565b600061586f601383614a2a565b915061587a82615839565b602082019050919050565b6000602082019050818103600083015261589e81615862565b9050919050565b7f4e6f7420636865636b656420696e000000000000000000000000000000000000600082015250565b60006158db600e83614a2a565b91506158e6826158a5565b602082019050919050565b6000602082019050818103600083015261590a816158ce565b9050919050565b7f556e617574686f72697a656420656e7469747900000000000000000000000000600082015250565b6000615947601383614a2a565b915061595282615911565b602082019050919050565b600060208201905081810360008301526159768161593a565b9050919050565b7f41706172746d656e74206e6f7420666f756e6421000000000000000000000000600082015250565b60006159b3601483614a2a565b91506159be8261597d565b602082019050919050565b600060208201905081810360008301526159e2816159a6565b9050919050565b7f496e73756666696369656e742066756e64210000000000000000000000000000600082015250565b6000615a1f601283614a2a565b9150615a2a826159e9565b602082019050919050565b60006020820190508181036000830152615a4e81615a12565b9050919050565b7f426f6f6b6564206461746520666f756e6420616d6f6e67206461746573210000600082015250565b6000615a8b601e83614a2a565b9150615a9682615a55565b602082019050919050565b60006020820190508181036000830152615aba81615a7e565b9050919050565b7f43616e6e6f7420626f6f6b207061737420646174657300000000000000000000600082015250565b6000615af7601683614a2a565b9150615b0282615ac1565b602082019050919050565b60006020820190508181036000830152615b2681615aea565b9050919050565b7f4461746573206d75737420626520696e206f7264657200000000000000000000600082015250565b6000615b63601683614a2a565b9150615b6e82615b2d565b602082019050919050565b60006020820190508181036000830152615b9281615b56565b9050919050565b600081905092915050565b50565b6000615bb4600083615b99565b9150615bbf82615ba4565b600082019050919050565b6000615bd582615ba7565b915081905091905056fea2646970667358221220b4bf7bb2a09765100cce00d2193d45791839e3372851f7d4e07537e786501c3164736f6c634300081c0033",
  "linkReferences": {},
  "deployedLinkReferences": {}
}